{
  "_format": "hh-sol-artifact-1",
  "contractName": "BlackPearl",
  "sourceName": "contracts/BlackPearl.sol",
  "abi": [
    {
      "inputs": [
        {
          "internalType": "string",
          "name": "_name",
          "type": "string"
        }
      ],
      "stateMutability": "nonpayable",
      "type": "constructor"
    },
    {
      "anonymous": false,
      "inputs": [
        {
          "indexed": false,
          "internalType": "uint256",
          "name": "id",
          "type": "uint256"
        },
        {
          "indexed": false,
          "internalType": "string",
          "name": "tributee",
          "type": "string"
        },
        {
          "indexed": false,
          "internalType": "string",
          "name": "amount",
          "type": "string"
        },
        {
          "indexed": false,
          "internalType": "string",
          "name": "hash",
          "type": "string"
        }
      ],
      "name": "PearlCreated",
      "type": "event"
    },
    {
      "anonymous": false,
      "inputs": [
        {
          "indexed": false,
          "internalType": "uint256",
          "name": "id",
          "type": "uint256"
        },
        {
          "indexed": false,
          "internalType": "string",
          "name": "tributee",
          "type": "string"
        },
        {
          "indexed": false,
          "internalType": "string",
          "name": "amount",
          "type": "string"
        },
        {
          "indexed": false,
          "internalType": "string",
          "name": "hash",
          "type": "string"
        },
        {
          "indexed": false,
          "internalType": "bool",
          "name": "published",
          "type": "bool"
        }
      ],
      "name": "PearlUpdated",
      "type": "event"
    },
    {
      "inputs": [
        {
          "internalType": "string",
          "name": "tributee",
          "type": "string"
        },
        {
          "internalType": "string",
          "name": "amount",
          "type": "string"
        },
        {
          "internalType": "string",
          "name": "hash",
          "type": "string"
        }
      ],
      "name": "createPearl",
      "outputs": [],
      "stateMutability": "nonpayable",
      "type": "function"
    },
    {
      "inputs": [
        {
          "internalType": "string",
          "name": "hash",
          "type": "string"
        }
      ],
      "name": "fetchPearl",
      "outputs": [
        {
          "components": [
            {
              "internalType": "uint256",
              "name": "id",
              "type": "uint256"
            },
            {
              "internalType": "string",
              "name": "tributer",
              "type": "string"
            },
            {
              "internalType": "string",
              "name": "tributee",
              "type": "string"
            },
            {
              "internalType": "string",
              "name": "amount",
              "type": "string"
            },
            {
              "internalType": "bool",
              "name": "published",
              "type": "bool"
            }
          ],
          "internalType": "struct BlackPearl.Pearl",
          "name": "",
          "type": "tuple"
        }
      ],
      "stateMutability": "view",
      "type": "function"
    },
    {
      "inputs": [],
      "name": "fetchPearls",
      "outputs": [
        {
          "components": [
            {
              "internalType": "uint256",
              "name": "id",
              "type": "uint256"
            },
            {
              "internalType": "string",
              "name": "tributer",
              "type": "string"
            },
            {
              "internalType": "string",
              "name": "tributee",
              "type": "string"
            },
            {
              "internalType": "string",
              "name": "amount",
              "type": "string"
            },
            {
              "internalType": "bool",
              "name": "published",
              "type": "bool"
            }
          ],
          "internalType": "struct BlackPearl.Pearl[]",
          "name": "",
          "type": "tuple[]"
        }
      ],
      "stateMutability": "view",
      "type": "function"
    },
    {
      "inputs": [],
      "name": "name",
      "outputs": [
        {
          "internalType": "string",
          "name": "",
          "type": "string"
        }
      ],
      "stateMutability": "view",
      "type": "function"
    },
    {
      "inputs": [],
      "name": "owner",
      "outputs": [
        {
          "internalType": "address",
          "name": "",
          "type": "address"
        }
      ],
      "stateMutability": "view",
      "type": "function"
    },
    {
      "inputs": [
        {
          "internalType": "address",
          "name": "newOwner",
          "type": "address"
        }
      ],
      "name": "transferOwnership",
      "outputs": [],
      "stateMutability": "nonpayable",
      "type": "function"
    },
    {
      "inputs": [
        {
          "internalType": "string",
          "name": "_name",
          "type": "string"
        }
      ],
      "name": "updateName",
      "outputs": [],
      "stateMutability": "nonpayable",
      "type": "function"
    },
    {
      "inputs": [
        {
          "internalType": "uint256",
          "name": "postId",
          "type": "uint256"
        },
        {
          "internalType": "string",
          "name": "tributee",
          "type": "string"
        },
        {
          "internalType": "string",
          "name": "amount",
          "type": "string"
        },
        {
          "internalType": "string",
          "name": "hash",
          "type": "string"
        },
        {
          "internalType": "bool",
          "name": "published",
          "type": "bool"
        }
      ],
      "name": "updatePearl",
      "outputs": [],
      "stateMutability": "nonpayable",
      "type": "function"
    }
  ],
  "bytecode": "0x60806040523480156200001157600080fd5b5060405162001dfd38038062001dfd8339818101604052810190620000379190620002b9565b6200006760405180606001604052806029815260200162001dd46029913982620000c860201b62000c911760201c565b80600090805190602001906200007f92919062000197565b5033600160006101000a81548173ffffffffffffffffffffffffffffffffffffffff021916908373ffffffffffffffffffffffffffffffffffffffff1602179055505062000506565b6200016a8282604051602401620000e19291906200033f565b6040516020818303038152906040527f4b5c4277000000000000000000000000000000000000000000000000000000007bffffffffffffffffffffffffffffffffffffffffffffffffffffffff19166020820180517bffffffffffffffffffffffffffffffffffffffffffffffffffffffff83818316178352505050506200016e60201b60201c565b5050565b60008151905060006a636f6e736f6c652e6c6f679050602083016000808483855afa5050505050565b828054620001a5906200042b565b90600052602060002090601f016020900481019282620001c9576000855562000215565b82601f10620001e457805160ff191683800117855562000215565b8280016001018555821562000215579182015b8281111562000214578251825591602001919060010190620001f7565b5b50905062000224919062000228565b5090565b5b808211156200024357600081600090555060010162000229565b5090565b60006200025e6200025884620003a3565b6200037a565b9050828152602081018484840111156200027757600080fd5b62000284848285620003f5565b509392505050565b600082601f8301126200029e57600080fd5b8151620002b084826020860162000247565b91505092915050565b600060208284031215620002cc57600080fd5b600082015167ffffffffffffffff811115620002e757600080fd5b620002f5848285016200028c565b91505092915050565b60006200030b82620003d9565b620003178185620003e4565b935062000329818560208601620003f5565b6200033481620004f5565b840191505092915050565b600060408201905081810360008301526200035b8185620002fe565b90508181036020830152620003718184620002fe565b90509392505050565b60006200038662000399565b905062000394828262000461565b919050565b6000604051905090565b600067ffffffffffffffff821115620003c157620003c0620004c6565b5b620003cc82620004f5565b9050602081019050919050565b600081519050919050565b600082825260208201905092915050565b60005b8381101562000415578082015181840152602081019050620003f8565b8381111562000425576000848401525b50505050565b600060028204905060018216806200044457607f821691505b602082108114156200045b576200045a62000497565b5b50919050565b6200046c82620004f5565b810181811067ffffffffffffffff821117156200048e576200048d620004c6565b5b80604052505050565b7f4e487b7100000000000000000000000000000000000000000000000000000000600052602260045260246000fd5b7f4e487b7100000000000000000000000000000000000000000000000000000000600052604160045260246000fd5b6000601f19601f8301169050919050565b6118be80620005166000396000f3fe608060405234801561001057600080fd5b50600436106100885760003560e01c8063b647bf861161005b578063b647bf8614610101578063d3815d731461011d578063f2fde38b1461013b578063f81dab3e1461015757610088565b806306fdde031461008d5780637f11968f146100ab57806384da92a7146100c75780638da5cb5b146100e3575b600080fd5b610095610187565b6040516100a29190611415565b60405180910390f35b6100c560048036038101906100c09190610fec565b610215565b005b6100e160048036038101906100dc9190610fab565b61040c565b005b6100eb610426565b6040516100f891906113d8565b60405180910390f35b61011b60048036038101906101169190611083565b61044c565b005b6101256106d6565b60405161013291906113f3565b60405180910390f35b61015560048036038101906101509190610f82565b6109e0565b005b610171600480360381019061016c9190610fab565b610a7e565b60405161017e919061146e565b60405180910390f35b60008054610194906116f9565b80601f01602080910402602001604051908101604052809291908181526020018280546101c0906116f9565b801561020d5780601f106101e25761010080835404028352916020019161020d565b820191906000526020600020905b8154815290600101906020018083116101f057829003601f168201915b505050505081565b600160009054906101000a900473ffffffffffffffffffffffffffffffffffffffff1673ffffffffffffffffffffffffffffffffffffffff163373ffffffffffffffffffffffffffffffffffffffff161461026f57600080fd5b6102796002610d2d565b60006102856002610d43565b90506000600360008381526020019081526020016000209050818160000181905550848160020190805190602001906102bf929190610d7a565b50838160030190805190602001906102d8929190610d7a565b5060018160040160006101000a81548160ff0219169083151502179055508281600101908051906020019061030e929190610d7a565b508060048460405161032091906113c1565b908152602001604051809103902060008201548160000155600182018160010190805461034c906116f9565b610357929190610e00565b50600282018160020190805461036c906116f9565b610377929190610e00565b50600382018160030190805461038c906116f9565b610397929190610e00565b506004820160009054906101000a900460ff168160040160006101000a81548160ff0219169083151502179055509050507ffbd98f88ab5a2ec61f8f1273268e7ae8ad87d7052d84041cb853fc01f05d6cab828686866040516103fd9493929190611490565b60405180910390a15050505050565b8060009080519060200190610422929190610d7a565b5050565b600160009054906101000a900473ffffffffffffffffffffffffffffffffffffffff1681565b600160009054906101000a900473ffffffffffffffffffffffffffffffffffffffff1673ffffffffffffffffffffffffffffffffffffffff163373ffffffffffffffffffffffffffffffffffffffff16146104a657600080fd5b6000600360008781526020019081526020016000209050848160020190805190602001906104d5929190610d7a565b50838160030190805190602001906104ee929190610d7a565b50818160040160006101000a81548160ff02191690831515021790555082816001019080519060200190610523929190610d7a565b508060036000888152602001908152602001600020600082015481600001556001820181600101908054610556906116f9565b610561929190610e00565b506002820181600201908054610576906116f9565b610581929190610e00565b506003820181600301908054610596906116f9565b6105a1929190610e00565b506004820160009054906101000a900460ff168160040160006101000a81548160ff021916908315150217905550905050806004846040516105e391906113c1565b908152602001604051809103902060008201548160000155600182018160010190805461060f906116f9565b61061a929190610e00565b50600282018160020190805461062f906116f9565b61063a929190610e00565b50600382018160030190805461064f906116f9565b61065a929190610e00565b506004820160009054906101000a900460ff168160040160006101000a81548160ff0219169083151502179055509050507f8c47b2f7e2152663d7f7fe173f1d52671c10bf72d8d9b332dfae47dea27d28398160000154868686866040516106c69594939291906114ea565b60405180910390a1505050505050565b606060006106e46002610d43565b905060008167ffffffffffffffff811115610728577f4e487b7100000000000000000000000000000000000000000000000000000000600052604160045260246000fd5b60405190808252806020026020018201604052801561076157816020015b61074e610e8d565b8152602001906001900390816107465790505b50905060005b828110156109d757600060018261077e9190611619565b90506000600360008381526020019081526020016000209050806040518060a0016040529081600082015481526020016001820180546107bd906116f9565b80601f01602080910402602001604051908101604052809291908181526020018280546107e9906116f9565b80156108365780601f1061080b57610100808354040283529160200191610836565b820191906000526020600020905b81548152906001019060200180831161081957829003601f168201915b5050505050815260200160028201805461084f906116f9565b80601f016020809104026020016040519081016040528092919081815260200182805461087b906116f9565b80156108c85780601f1061089d576101008083540402835291602001916108c8565b820191906000526020600020905b8154815290600101906020018083116108ab57829003601f168201915b505050505081526020016003820180546108e1906116f9565b80601f016020809104026020016040519081016040528092919081815260200182805461090d906116f9565b801561095a5780601f1061092f5761010080835404028352916020019161095a565b820191906000526020600020905b81548152906001019060200180831161093d57829003601f168201915b505050505081526020016004820160009054906101000a900460ff1615151515815250508484815181106109b7577f4e487b7100000000000000000000000000000000000000000000000000000000600052603260045260246000fd5b6020026020010181905250505080806109cf9061175c565b915050610767565b50809250505090565b600160009054906101000a900473ffffffffffffffffffffffffffffffffffffffff1673ffffffffffffffffffffffffffffffffffffffff163373ffffffffffffffffffffffffffffffffffffffff1614610a3a57600080fd5b80600160006101000a81548173ffffffffffffffffffffffffffffffffffffffff021916908373ffffffffffffffffffffffffffffffffffffffff16021790555050565b610a86610e8d565b600482604051610a9691906113c1565b90815260200160405180910390206040518060a001604052908160008201548152602001600182018054610ac9906116f9565b80601f0160208091040260200160405190810160405280929190818152602001828054610af5906116f9565b8015610b425780601f10610b1757610100808354040283529160200191610b42565b820191906000526020600020905b815481529060010190602001808311610b2557829003601f168201915b50505050508152602001600282018054610b5b906116f9565b80601f0160208091040260200160405190810160405280929190818152602001828054610b87906116f9565b8015610bd45780601f10610ba957610100808354040283529160200191610bd4565b820191906000526020600020905b815481529060010190602001808311610bb757829003601f168201915b50505050508152602001600382018054610bed906116f9565b80601f0160208091040260200160405190810160405280929190818152602001828054610c19906116f9565b8015610c665780601f10610c3b57610100808354040283529160200191610c66565b820191906000526020600020905b815481529060010190602001808311610c4957829003601f168201915b505050505081526020016004820160009054906101000a900460ff1615151515815250509050919050565b610d298282604051602401610ca7929190611437565b6040516020818303038152906040527f4b5c4277000000000000000000000000000000000000000000000000000000007bffffffffffffffffffffffffffffffffffffffffffffffffffffffff19166020820180517bffffffffffffffffffffffffffffffffffffffffffffffffffffffff8381831617835250505050610d51565b5050565b6001816000016000828254019250508190555050565b600081600001549050919050565b60008151905060006a636f6e736f6c652e6c6f679050602083016000808483855afa5050505050565b828054610d86906116f9565b90600052602060002090601f016020900481019282610da85760008555610def565b82601f10610dc157805160ff1916838001178555610def565b82800160010185558215610def579182015b82811115610dee578251825591602001919060010190610dd3565b5b509050610dfc9190610ebe565b5090565b828054610e0c906116f9565b90600052602060002090601f016020900481019282610e2e5760008555610e7c565b82601f10610e3f5780548555610e7c565b82800160010185558215610e7c57600052602060002091601f016020900482015b82811115610e7b578254825591600101919060010190610e60565b5b509050610e899190610ebe565b5090565b6040518060a00160405280600081526020016060815260200160608152602001606081526020016000151581525090565b5b80821115610ed7576000816000905550600101610ebf565b5090565b6000610eee610ee984611577565b611552565b905082815260208101848484011115610f0657600080fd5b610f118482856116b7565b509392505050565b600081359050610f2881611843565b92915050565b600081359050610f3d8161185a565b92915050565b600082601f830112610f5457600080fd5b8135610f64848260208601610edb565b91505092915050565b600081359050610f7c81611871565b92915050565b600060208284031215610f9457600080fd5b6000610fa284828501610f19565b91505092915050565b600060208284031215610fbd57600080fd5b600082013567ffffffffffffffff811115610fd757600080fd5b610fe384828501610f43565b91505092915050565b60008060006060848603121561100157600080fd5b600084013567ffffffffffffffff81111561101b57600080fd5b61102786828701610f43565b935050602084013567ffffffffffffffff81111561104457600080fd5b61105086828701610f43565b925050604084013567ffffffffffffffff81111561106d57600080fd5b61107986828701610f43565b9150509250925092565b600080600080600060a0868803121561109b57600080fd5b60006110a988828901610f6d565b955050602086013567ffffffffffffffff8111156110c657600080fd5b6110d288828901610f43565b945050604086013567ffffffffffffffff8111156110ef57600080fd5b6110fb88828901610f43565b935050606086013567ffffffffffffffff81111561111857600080fd5b61112488828901610f43565b925050608061113588828901610f2e565b9150509295509295909350565b600061114e838361129b565b905092915050565b61115f8161166f565b82525050565b6000611170826115b8565b61117a81856115db565b93508360208202850161118c856115a8565b8060005b858110156111c857848403895281516111a98582611142565b94506111b4836115ce565b925060208a01995050600181019050611190565b50829750879550505050505092915050565b6111e381611681565b82525050565b6111f281611681565b82525050565b6000611203826115c3565b61120d81856115ec565b935061121d8185602086016116c6565b61122681611832565b840191505092915050565b600061123c826115c3565b61124681856115fd565b93506112568185602086016116c6565b61125f81611832565b840191505092915050565b6000611275826115c3565b61127f818561160e565b935061128f8185602086016116c6565b80840191505092915050565b600060a0830160008301516112b360008601826113a3565b50602083015184820360208601526112cb82826111f8565b915050604083015184820360408601526112e582826111f8565b915050606083015184820360608601526112ff82826111f8565b915050608083015161131460808601826111da565b508091505092915050565b600060a08301600083015161133760008601826113a3565b506020830151848203602086015261134f82826111f8565b9150506040830151848203604086015261136982826111f8565b9150506060830151848203606086015261138382826111f8565b915050608083015161139860808601826111da565b508091505092915050565b6113ac816116ad565b82525050565b6113bb816116ad565b82525050565b60006113cd828461126a565b915081905092915050565b60006020820190506113ed6000830184611156565b92915050565b6000602082019050818103600083015261140d8184611165565b905092915050565b6000602082019050818103600083015261142f8184611231565b905092915050565b600060408201905081810360008301526114518185611231565b905081810360208301526114658184611231565b90509392505050565b60006020820190508181036000830152611488818461131f565b905092915050565b60006080820190506114a560008301876113b2565b81810360208301526114b78186611231565b905081810360408301526114cb8185611231565b905081810360608301526114df8184611231565b905095945050505050565b600060a0820190506114ff60008301886113b2565b81810360208301526115118187611231565b905081810360408301526115258186611231565b905081810360608301526115398185611231565b905061154860808301846111e9565b9695505050505050565b600061155c61156d565b9050611568828261172b565b919050565b6000604051905090565b600067ffffffffffffffff82111561159257611591611803565b5b61159b82611832565b9050602081019050919050565b6000819050602082019050919050565b600081519050919050565b600081519050919050565b6000602082019050919050565b600082825260208201905092915050565b600082825260208201905092915050565b600082825260208201905092915050565b600081905092915050565b6000611624826116ad565b915061162f836116ad565b9250827fffffffffffffffffffffffffffffffffffffffffffffffffffffffffffffffff03821115611664576116636117a5565b5b828201905092915050565b600061167a8261168d565b9050919050565b60008115159050919050565b600073ffffffffffffffffffffffffffffffffffffffff82169050919050565b6000819050919050565b82818337600083830152505050565b60005b838110156116e45780820151818401526020810190506116c9565b838111156116f3576000848401525b50505050565b6000600282049050600182168061171157607f821691505b60208210811415611725576117246117d4565b5b50919050565b61173482611832565b810181811067ffffffffffffffff8211171561175357611752611803565b5b80604052505050565b6000611767826116ad565b91507fffffffffffffffffffffffffffffffffffffffffffffffffffffffffffffffff82141561179a576117996117a5565b5b600182019050919050565b7f4e487b7100000000000000000000000000000000000000000000000000000000600052601160045260246000fd5b7f4e487b7100000000000000000000000000000000000000000000000000000000600052602260045260246000fd5b7f4e487b7100000000000000000000000000000000000000000000000000000000600052604160045260246000fd5b6000601f19601f8301169050919050565b61184c8161166f565b811461185757600080fd5b50565b61186381611681565b811461186e57600080fd5b50565b61187a816116ad565b811461188557600080fd5b5056fea2646970667358221220bcfeb7c307f1ac0b77cdff9c687196a2328b43bef13b4a31aca27a7642538e9264736f6c634300080400334465706c6f79696e6720426c61636b20506561726c20436f6e74726163742077697468206e616d653a",
  "linkReferences": {},
  "deployedLinkReferences": {}
}